:020000040000FA
:060000000A128A11FC2F18
:10000C00F40074080F39F1007108F2007408F0392B
:10001C00F1007108F3008312031308157308F10043
:10002C0004300310F10CFF3E031D172871080A124F
:10003C008A157C260A128A1183120313881535300F
:10004C00F100F10B272883120313881172080A128E
:10005C008A157C260A128A118312031388153530EF
:10006C00F100F10B37288312031388110800831257
:10007C0003130715871507120330F2000830F1003F
:10008C007730F000F00B4828F10B4828F20B482889
:10009C0083120313871107160330F2000830F100A6
:1000AC007730F000F00B5828F10B5828F20B582839
:1000BC0083120313871507120330F2000830F10086
:1000CC007730F000F00B6828F10B6828F20B6828E9
:1000DC0083120313871107160330F2000830F10066
:1000EC007730F000F00B7828F10B7828F20B782899
:1000FC0083120313871507120330F2000830F10046
:10010C007730F000F00B8828F10B8828F20B882848
:10011C0083120313871107165C30F2005130F10083
:10012C006030F000F00B9828F10B9828F20B98280F
:10013C0000008312031307110800831203138715A1
:10014C0087120630F2001330F100AD30F000F00BE6
:10015C00AD28F10BAD28F20BAD28B4288312031394
:10016C00871187160430F2000C30F1003330F000A8
:10017C00F00BBE28F10BBE28F20BBE28C52883124B
:10018C000313871587120630F2001330F100AD30DF
:10019C00F000F00BCF28F10BCF28F20BCF28D6288C
:1001AC0083120313871187160430F2000C30F10010
:1001BC003330F000F00BE028F10BE028F20BE028D4
:1001CC00E72883120313871587120630F2001330C9
:1001DC00F100AD30F000F00BF128F10BF128F20B2F
:1001EC00F128F82883120313871187160430F200C4
:1001FC000C30F1003330F000F00B0229F10B022926
:10020C00F20B022909298312031387158712063072
:10021C00F2001330F100AD30F000F00B1329F10BAC
:10022C001329F20B13291A2983120313871187162A
:10023C000430F2000C30F1003330F000F00B2429C4
:10024C00F10B2429F20B24292B2983120313871574
:10025C0087120630F2001330F100AD30F000F00BD5
:10026C003529F10B3529F20B35293C29831203135F
:10027C00871187160430F2000C30F1003330F00097
:10028C00F00B4629F10B4629F20B46294D290800A3
:10029C0083120313AB002130A3002308A600013006
:1002AC00A007FF30200784000A128A150A200A12C0
:1002BC008A11A3002308AC002C080319212A25302D
:1002CC002C06031975292C08A3002B08840023087D
:1002DC00831380000130A3002308AB075529A70125
:1002EC000130A007FF30200784000A128A150A206B
:1002FC000A128A11AC00A300A4012408003A0319C5
:10030C00882955292308003A0319212A643A03192C
:10031C0093290D3A03199329552926088400831330
:10032C000008A900840A0008AA000230A3002308D0
:10033C00A607AA1FAA290330A3002308A704A9090A
:10034C00AA09A90A0319AA0AAC01AC0A2C08A30031
:10035C002307013E84000A128A150A200A128A1108
:10036C00A4000A128A150A200A128A11A50025086F
:10037C002A02031DC32924082902031CCD2901309C
:10038C00A3002308AC0705302C06031DAC29270855
:10039C0003390319DC292D30A3002B088400230812
:1003AC00831380000130A3002308AB072C08A300A3
:1003BC002308A800FF30A3002308A807280A031964
:1003CC0055290A30F8000030F9002808A30023074B
:1003DC00013E84000A128A150A200A128A11F000C2
:1003EC000A128A150A200A128A11F1002A08F3004F
:1003FC002908F2000A128A15E2260A128A117108DB
:10040C00FB007008FA000A128A15B0260A128A112B
:10041C007808303E83120313A4002408AC002C0887
:10042C00A3002B0884002308831380000130A30051
:10043C002308AB07E0292B088400831380010800F4
:10044C0083160313870183120313071687160717E6
:10045C008717871507130230F2000430F100BA3009
:10046C00F000F00B372AF10B372AF20B372A000079
:10047C0083120313871107170230F2000430F100C6
:10048C00BA30F000F00B482AF10B482AF20B482A3C
:10049C00000083120313871507130230F200043097
:1004AC00F100BA30F000F00B592AF10B592AF20B7B
:1004BC00592A000083120313871107170230F20028
:1004CC000430F100BA30F000F00B6A2AF10B6A2A02
:1004DC00F20B6A2A000083120313871507130230EC
:1004EC00F2000430F100BA30F000F00B7B2AF10B73
:1004FC007B2AF20B7B2A0000831203138711071748
:10050C000230F2000430F100BA30F000F00B8C2A0B
:10051C00F10B8C2AF20B8C2A000083120313871523
:10052C0007130630F2001330F100AD30F000F00B81
:10053C009D2AF10B9D2AF20B9D2AA42A83120313E8
:10054C00871107170430F2000C30F1003330F00043
:10055C00F00BAE2AF10BAE2AF20BAE2AB52A83129F
:10056C000313871507130630F2001330F100AD307A
:10057C00F000F00BBF2AF10BBF2AF20BBF2AC62AE0
:10058C0083120313871107170430F2000C30F100AB
:10059C003330F000F00BD02AF10BD02AF20BD02A1A
:1005AC00D72A83120313871507130230F200043085
:1005BC00F100BA30F000F00BE12AF10BE12AF20B5A
:1005CC00E12A000083120313871107170230F2008F
:1005DC000430F100BA30F000F00BF22AF10BF22AE1
:1005EC00F20BF22A00008312031387150713023053
:1005FC00F2000430F100BA30F000F00B032BF10BD9
:10060C00032BF20B032B0000831203138711071724
:10061C000230F2000430F100BA30F000F00B142B71
:10062C00F10B142BF20B142B00000F30F2003530B1
:10063C00F1005130F000F00B212BF10B212BF20BC0
:10064C00212B080083120313061086140615861539
:10065C00061A432B0630F2001330F100AD30F000D7
:10066C00F00B362BF10B362BF20B362B3D2B83126A
:10067C000313061E3D2B31300800861A582B06300A
:10068C00F2001330F100AD30F000F00B4B2BF10BFE
:10069C004B2BF20B4B2B522B83120313861E522B1C
:1006AC0032300800061B6D2B0630F2001330F100BF
:1006BC00AD30F000F00B602BF10B602BF20B602BCC
:1006CC00672B83120313061F672B333008000614A5
:1006DC00861006158615061A862B0630F200133086
:1006EC00F100AD30F000F00B792BF10B792BF20B04
:1006FC00792B802B83120313061E802B34300800B9
:10070C00861A9B2B0630F2001330F100AD30F0004E
:10071C00F00B8E2BF10B8E2BF20B8E2B952B831259
:10072C000313861E952B35300800061BB02B0630A4
:10073C00F2001330F100AD30F000F00BA32BF10BF5
:10074C00A32BF20BA32BAA2B83120313061FAA2B8A
:10075C00363008000614861406118615061AC92BA5
:10076C000630F2001330F100AD30F000F00BBC2B72
:10077C00F10BBC2BF20BBC2BC32B83120313061EE9
:10078C00C32B37300800861ADE2B0630F2001330EC
:10079C00F100AD30F000F00BD12BF10BD12BF20BA3
:1007AC00D12BD82B83120313861ED82B383008007C
:1007BC00061BF32B0630F2001330F100AD30F000C5
:1007CC00F00BE62BF10BE62BF20BE62BED2B831249
:1007DC000313061FED2B393008000614861406157A
:1007EC008611061A0C2C0630F2001330F100AD30D5
:1007FC00F000F00BFF2BF10BFF2BF20BFF2B062C59
:10080C0083120313061E062C2A300800861A212C8C
:10081C000630F2001330F100AD30F000F00B142C68
:10082C00F10B142CF20B142C1B2C83120313861EAD
:10083C001B2C30300800061B362C0630F20013300F
:10084C00F100AD30F000F00B292CF10B292CF20B40
:10085C00292C302C83120313061F302C2330080054
:10086C006E30080083160313880183120313E00112
:10087C00E1011E30D6000030D7003130AD002D081C
:10088C00CC003230AD002D08CD003330AD002D083A
:10089C00CE003430AD002D08CF002A30AD002D082D
:1008AC00C8003030AD002D08C9003030AD002D0827
:1008BC00CA002330AD002D08CB000A128A15A527DB
:1008CC000A128A110A128A152C260A128A11F401AC
:1008DC00F40A01300A128A155B270A128A111C309D
:1008EC00F5008030F6000A128A151E270A128A11AA
:1008FC000A128A1126220A128A110A128A1536261F
:10090C000A128A11C52C4D085D06031DA22D4E0836
:10091C005E06031DA22D4F085F06031DA22D0A12B1
:10092C008A1536260A128A11F401F40A01300A12C9
:10093C008A155B270A128A110B30F5008030F600FD
:10094C000A128A151E270A128A11F401F40A0230BF
:10095C000A128A155B270A128A116830F50080305A
:10096C00F6000A128A151E270A128A110A128A1117
:10097C003D200A128A1183120313E001E1010A12CD
:10098C008A1536260A128A11F401F40A01300A1269
:10099C008A155B270A128A115A30F5008030F6004E
:1009AC000A128A151E270A128A1193308312031316
:1009BC00AD002D08A0006108A2006008A100303035
:1009CC000A128A114E210A128A110F308312031354
:1009DC00AD002D08F40001300A128A155B270A12AB
:1009EC008A113030F5000030F6000A128A151E27E5
:1009FC000A128A11831203136008013EE000610899
:100A0C000318013E003EE1000A128A1541260A1223
:100A1C008A1183120313AD002D08DC00F401F40AD3
:100A2C0002300A128A155B270A128A1183120313E9
:100A3C005C080A128A1106200A128A110A128A15F7
:100A4C0066260A128A110A128A1541260A128A117E
:100A5C0083120313AD002D08DD000230AD002D080C
:100A6C00F40002300A128A155B270A128A118312CB
:100A7C0003135D080A128A1106200A128A110A123F
:100A8C008A1566260A128A110A128A1541260A123A
:100A9C008A1183120313AD002D08DE000330AD0064
:100AAC002D08F40002300A128A155B270A128A11EB
:100ABC00831203135E080A128A1106200A128A1185
:100ACC000A128A1566260A128A110A128A154126FA
:100ADC000A128A1183120313AD002D08DF000430B3
:100AEC00AD002D08F40002300A128A155B270A1299
:100AFC008A11831203135F080A128A1106200A1244
:100B0C008A110A128A1566260A128A111430831267
:100B1C000313AF004730AE000030AD00AD0B942D89
:100B2C00AE0B942DAF0B942D9B2D00008312031351
:100B3C004C085C060319892C48085C06031D512FD0
:100B4C0049085D06031D512F4A085E06031D512FEF
:100B5C004B085F06031D512F0A128A1536260A12FE
:100B6C008A11F401F40A01300A128A155B270A1261
:100B7C008A113C30F5008030F6000A128A151E27C7
:100B8C000A128A110A128A1541260A128A11831234
:100B9C000313AD002D08D200F401F40A02300A123E
:100BAC008A155B270A128A118312031352080A1240
:100BBC008A1106200A128A110A128A1566260A124E
:100BCC008A110A128A1541260A128A1183120313FA
:100BDC00AD002D08D3000230AD002D08F40002301A
:100BEC000A128A155B270A128A11831203135308FF
:100BFC000A128A1106200A128A110A128A1566260E
:100C0C000A128A110A128A1541260A128A118312B3
:100C1C000313AD002D08D4000330AD002D08F400F3
:100C2C0002300A128A155B270A128A1183120313E7
:100C3C0054080A128A1106200A128A110A128A15FD
:100C4C0066260A128A110A128A1541260A128A117C
:100C5C0083120313AD002D08D5000430AD002D0810
:100C6C00F40002300A128A155B270A128A118312C9
:100C7C00031355080A128A1106200A128A110A1245
:100C8C008A1566260A128A11143083120313AF00D8
:100C9C004730AE000030AD00AD0B522EAE0B522ED5
:100CAC00AF0B522E592E00000A128A1536260A1244
:100CBC008A11F401F40A01300A128A155B270A1210
:100CCC008A114B30F5008030F6000A128A151E2767
:100CDC000A128A110A128A1541260A128A118312E3
:100CEC000313AD002D08D800F401F40A02300A12E7
:100CFC008A155B270A128A118312031358080A12E9
:100D0C008A1106200A128A110A128A1566260A12FC
:100D1C008A110A128A1541260A128A1183120313A8
:100D2C00AD002D08D9000230AD002D08F4000230C2
:100D3C000A128A155B270A128A11831203135908A7
:100D4C000A128A1106200A128A110A128A156626BC
:100D5C000A128A110A128A1541260A128A11831262
:100D6C000313AD002D08DA000330AD002D08F4009C
:100D7C0002300A128A155B270A128A118312031396
:100D8C005A080A128A1106200A128A110A128A15A6
:100D9C0066260A128A110A128A1541260A128A112B
:100DAC0083120313AD002D08DB000430AD002D08B9
:100DBC00F40002300A128A155B270A128A11831278
:100DCC0003135B080A128A1106200A128A110A12EE
:100DDC008A1566260A128A11143083120313AF0087
:100DEC004730AE000030AD00AD0BFA2EAE0BFA2E34
:100DFC00AF0BFA2E012F0000831203135208580672
:100E0C00031DC52C53085906031DC52C54085A063E
:100E1C00031DC52C55085B06031DC52C5808AD00D9
:100E2C002D08CC005908AD002D08CD005A08AD0096
:100E3C002D08CE005B08AD002D08CF000A128A15D4
:100E4C0036260A128A11F401F40A01300A128A15A4
:100E5C005B270A128A117430F5008030F6000A12F2
:100E6C008A151E270A128A11F401F40A02300A129A
:100E7C008A155B270A128A118930F5008030F6003A
:100E8C000A128A151E270A128A110A128A11A32025
:100E9C000A128A11C12C053060066104031DE02F73
:100EAC000A128A1536260A128A11F401F40A013044
:100EBC000A128A155B270A128A112C30F500803031
:100ECC00F6000A128A151E270A128A1183120313BE
:100EDC00D001D1015108803AFF0080307F02031D00
:100EEC00792F1F3050020318D92F9330831203131C
:100EFC00AD002D08A0005708A2005608A1003C30F8
:100F0C000A128A114E210A128A110A128A153626E1
:100F1C000A128A11F401F40A01300A128A155B27AD
:100F2C000A128A112C30F5008030F6000A128A154C
:100F3C001E270A128A11F401F40A02300A128A15C9
:100F4C005B270A128A113C30F5000030F6000A12B9
:100F5C008A151E270A128A110A128A1551260A129C
:100F6C008A11831203135608FF3ED6005708031844
:100F7C00013EFF3ED700133083120313AF00443001
:100F8C00AE004330AD00AD0BC92FAE0BC92FAF0B6C
:100F9C00C92FD02F013083120313D0070318D10AA5
:100FAC000030D107702F1E3083120313D60000308F
:100FBC00D700C12C0A128A1536260A128A11F4019E
:100FCC00F40A01300A128A155B270A128A117F3043
:100FDC00F5008030F6000A128A151E270A128A11B3
:100FEC000A128A11A3200A128A11C52C83010A1233
:100FFC008A11382CFF1B0A2883137F1883170008CB
:10100C00840A0319FF0A080008308A000408840ABD
:10101C0082070034013400340A3400346434003460
:10102C00E83403341034273443346F34723472345C
:10103C006534633474342034503461347334733411
:10104C0077346F34723464340034573445346C3430
:10105C0063346F346D346534203454344F3420345D
:10106C0053344C345434433400345734613469347D
:10107C007434203446346F34723420343334303486
:10108C00203453346534633400345234653473344F
:10109C00653474342034503461347334733477349D
:1010AC006F3472346434003445346E3474346534C3
:1010BC007234203450345734203441346734613422
:1010CC0069346E34003445346E347434653472349F
:1010DC00203474346834653420344B3465347934BA
:1010EC00003444346F346F34723420344F347034E1
:1010FC0065346E34653464340034503457342034E1
:10110C005234653473346534743465346434003467
:10111C005434723479342034413467346134693452
:10112C006E3400345434683461346E346B3420348F
:0E113C0059346F347534003425346434003473
:101C5800831203138601F0308316031386007F3046
:101C68008100080000300A128A1596260A128A1581
:101C780001300A128A15962608006E30F3007308A0
:101C8800F4006E307406031D4F2E0A128A112823A1
:101C98000A128A15422E7408080083120313871546
:101CA80007130330F2000830F1007730F000F00B32
:101CB8005B2EF10B5B2EF20B5B2E83120313871145
:101CC8000717080083120313871507130230F20061
:101CD8000430F100BA30F000F00B702EF10B702ECA
:101CE800F20B702E000083120313871107170800E8
:101CF800F000701C832E831203130816862E83129D
:101D080003130812F01C8A2E88168B2E8812701D59
:101D18008F2E0817902E0813F01D942E8817080090
:101D280088130800F30083120313081173080A12BA
:101D38008A157C260A128A15831203138815153012
:101D4800F200C630F100F10BA72EF20BA72E00000F
:101D58008312031388110800780879040319DD2E0B
:101D6800FD01FD0AF91BC42E01300310F80DF90D11
:101D7800FF3E031DB92E0130FC007C08FD07B62E7E
:101D880079087B02031DCA2E78087A02031CD22E1A
:101D98007808FA027908031CFB03FB0201300310E0
:101DA800F90CF80CFF3E031DD32E0130FD02031D74
:101DB800C42E7B08F9007A08F8000800F501F6013E
:101DC800700871040319192FF701F70AF11BF82E8F
:101DD80001300310F00DF10DFF3E031DED2E013013
:101DE800F4007408F707EA2E01300310F50DF60D1C
:101DF800FF3E031DF92E71087302031D052F70089D
:101E08007202031C0E2F7008F2027108031CF30300
:101E1800F302751401300310F10CF00CFF3E031DA2
:101E28000F2F0130F702031DF82E7608F100750810
:101E3800F0000800FA01FB017A087507F800760837
:101E4800F7000318F70AFA1BF7037708F90079086F
:101E580083120313FF00780884000A128A150020F1
:101E68000A128A15003A031908007A087507F8005B
:101E78007608F7000318F70AFA1BF7037708F90042
:101E8800790883120313FF00780884000A128A1560
:101E980000200A128A150A128A1106200A128A15C7
:101EA8000130FA070318FB0A0030FB07202FF70060
:101EB8007703031D802F74087F3EF5007508FA002C
:101EC8007A08F50004300310F50CFF3E031D672F58
:101ED8007508F6007608F8007A080F39F5007508D5
:101EE800F90078080A128A1596260A128A157908BE
:101EF8000A128A159626080002307706031D080084
:101F08007408BF3EF5007508FA007A08F500043039
:101F18000310F50CFF3E031D8C2F7508F60076089C
:101F2800F8007A080F39F5007508F90078080A12E0
:101F38008A1596260A128A1579080A128A1596268B
:101F4800080000300A128A157C260A128A156830A1
:101F5800F500E430F400F40BAF2FF50BAF2F0000C1
:101F680003300A128A1596260A128A151A30F500C5
:101F7800F830F400F40BBE2FF50BBE2F0000033031
:101F88000A128A1596260A128A153A30F500233065
:101F9800F400F40BCD2FF50BCD2F03300A128A1560
:101FA80096260A128A1502300A128A1596260A12ED
:101FB8008A1502300A128A1596260A128A150830DE
:101FC8000A128A1596260A128A1500300A128A15EC
:101FD80096260A128A150C300A128A1596260A12B3
:101FE8008A1500300A128A1596260A128A150630B2
:081FF8000A128A159626080062
:02400E007A3FF7
:00000001FF
