:020000040000FA
:100000000A128A11FC2FFF1B0D2883137F188317F8
:100010000008840A0319FF0A080000308A00040857
:10002000840A82070034013400340A340034643412
:100030000034E83403341034273443346F347234DA
:10004000723465346334743420345034613473341E
:10005000733477346F347234643400345734453435
:100060006C3463346F346D346534203454344F341D
:10007000203453344C3454344334003457346134D2
:1000800069347434203446346F3472342034333459
:10009000303420345334653463340034523465349E
:1000A00073346534743420345034613473347334AD
:1000B00077346F3472346434003445346E347434BD
:1000C000653472342034503457342034413467342A
:1000D000613469346E34003445346E3474346534BC
:1000E0007234203474346834653420344B346534CD
:1000F0007934003444346F346F34723420344F34E4
:10010000703465346E34653464340034503457349C
:100110002034523465347334653474346534643453
:1001200000345434723479342034413467346134C7
:1001300069346E3400345434683461346E346B3452
:10014000203459346F347534003425346434003429
:1001560000300A128A15B4270A128A1101300A12CF
:100166008A15B4270800F40074080F39F1007108E5
:10017600F2007408F039F1007108F30083120313DA
:1001860008157308F10004300310F10CFF3E031D3F
:10019600C72871080A128A159A270A128A11831229
:1001A600031388153530F100F10BD728831203139A
:1001B600881172080A128A159A270A128A1183125E
:1001C600031388153530F100F10BE728831203136A
:1001D60088110800F501F601700871040319242935
:1001E600F701F70AF11B032901300310F00DF10D99
:1001F600FF3E031DF8280130F4007408F707F528C0
:1002060001300310F50DF60DFF3E031D042971089C
:100216007302031D102970087202031C1929700845
:10022600F2027108031CF303F30275140130031084
:10023600F10CF00CFF3E031D1A290130F702031DD5
:1002460003297608F1007508F0000800FA01FB01A1
:100256007A087507F8007608F7000318F70AFA1BFC
:10026600F7037708F900790883120313FF0078086B
:1002760084000A128A1103200A128A11003A03190D
:1002860008007A087507F8007608F7000318F70AD9
:10029600FA1BF7037708F900790883120313FF00A6
:1002A600780884000A128A1103200A128A110A1297
:1002B6008A11B6200A128A110130FA070318FB0ABE
:1002C6000030FB072B29F7007703031D8B297408E1
:1002D6007F3EF5007508FA007A08F5000430031031
:1002E600F50CFF3E031D72297508F6007608F80026
:1002F6007A080F39F5007508F90078080A128A1588
:10030600B4270A128A1179080A128A15B427080036
:1003160002307706031D08007408BF3EF500750815
:10032600FA007A08F50004300310F50CFF3E031DB1
:1003360097297508F6007608F8007A080F39F5004F
:100346007508F90078080A128A15B4270A128A1164
:1003560079080A128A15B427080000300A128A158D
:100366009A270A128A116830F500E430F400F40B7B
:10037600BA29F50BBA29000003300A128A15B427E8
:100386000A128A111A30F500F830F400F40BC92964
:10039600F50BC929000003300A128A15B4270A1280
:1003A6008A113A30F5002330F400F40BD829F50B06
:1003B600D82903300A128A15B4270A128A11023084
:1003C6000A128A15B4270A128A1102300A128A15ED
:1003D600B4270A128A1108300A128A15B4270A129B
:1003E6008A1100300A128A15B4270A128A110C30B3
:1003F6000A128A15B4270A128A1100300A128A15BF
:10040600B4270A128A1106300A128A15B427080080
:10041600831603138701831203130715871507161F
:100426000B30F2002630F1005D30F000F00B192A97
:10043600F10B192AF20B192A202A831203138711AA
:1004460007120B30F2002630F1005D30F000F00BA1
:100456002A2AF10B2A2AF20B2A2A312A831203139B
:10046600871507160B30F2002630F1005D30F000DC
:10047600F00B3B2AF10B3B2AF20B3B2A422A831252
:100486000313871107120B30F2002630F1005D309E
:10049600F000F00B4C2AF10B4C2AF20B4C2A532A93
:1004A60083120313871507160B30F2002630F1006E
:1004B6005D30F000F00B5D2AF10B5D2AF20B5D2A30
:1004C600642A83120313871107123D30F200E130CC
:1004D600F1003F30F000F00B6E2AF10B6E2AF20BA2
:1004E6006E2A752A83120313071108008312031359
:1004F600AB002130A3002308A6000130A007FF307F
:10050600200784000A128A110D200A128A11A300FC
:100516002308AC002C0803194C2B25302C06031994
:10052600A02A2C08A3002B0884002308831380002C
:100536000130A3002308AB07802AA7010130A007DA
:10054600FF30200784000A128A110D200A128A1130
:10055600AC00A300A4012408003A0319B32A802A98
:100566002308003A03194C2B643A0319BE2A0D3AA4
:100576000319BE2A802A2608840083130008A900CE
:10058600840A0008AA000230A3002308A607AA1FAF
:10059600D52A0330A3002308A704A909AA09A90A92
:1005A6000319AA0AAC01AC0A2C08A3002307013ED2
:1005B60084000A128A110D200A128A11A4000A1256
:1005C6008A110D200A128A11A50025082A02031D88
:1005D600EE2A24082902031CF82A0130A300230866
:1005E600AC0705302C06031DD72A27080339031943
:1005F600072B2D30A3002B088400230883138000CB
:100606000130A3002308AB072C08A3002308A80089
:10061600FF30A3002308A807280A0319802A0A30F6
:10062600F8000030F9002808A3002307013E8400E3
:100636000A128A110D200A128A11F0000A128A1172
:100646000D200A128A11F1002A08F3002908F20087
:100656000A128A11ED200A128A117108FB0070082D
:10066600FA000A128A15CE270A128A117808303E35
:1006760083120313A4002408AC002C08A3002B0843
:1006860084002308831380000130A3002308AB07EE
:100696000B2B2B088400831380010800831203139D
:1006A6000610861406158615061A6C2B0630F200FF
:1006B6001330F100AD30F000F00B5F2BF10B5F2B28
:1006C600F20B5F2B662B83120313061E662B31304B
:1006D6000800861A812B0630F2001330F100AD3087
:1006E600F000F00B742BF10B742BF20B742B7B2B9D
:1006F60083120313861E7B2B32300800061B962BB3
:100706000630F2001330F100AD30F000F00B892B0B
:10071600F10B892BF20B892B902B83120313061FE7
:10072600902B333008000614861006158615061A17
:10073600AF2B0630F2001330F100AD30F000F00BB5
:10074600A22BF10BA22BF20BA22BA92B83120313C4
:10075600061EA92B34300800861AC42B0630F20078
:100766001330F100AD30F000F00BB72BF10BB72BC7
:10077600F20BB72BBE2B83120313861EBE2B35300E
:100786000800061BD92B0630F2001330F100AD30FD
:10079600F000F00BCC2BF10BCC2BF20BCC2BD32B8C
:1007A60083120313061FD32B363008000614861453
:1007B60006118615061AF22B0630F2001330F100E8
:1007C600AD30F000F00BE52BF10BE52BF20BE52B32
:1007D600EC2B83120313061EEC2B37300800861A07
:1007E600072C0630F2001330F100AD30F000F00BAC
:1007F600FA2BF10BFA2BF20BFA2B012C83120313B3
:10080600861E012C38300800061B1C2C0630F20010
:100816001330F100AD30F000F00B0F2CF10B0F2C64
:10082600F20B0F2C162C83120313061F162C3930CD
:1008360008000614861406158611061A352C06308D
:10084600F2001330F100AD30F000F00B282CF10B64
:10085600282CF20B282C2F2C83120313061E2F2C68
:100866002A300800861A4A2C0630F2001330F100AE
:10087600AD30F000F00B3D2CF10B3D2CF20B3D2C76
:10088600442C83120313861E442C30300800061BAA
:100896005F2C0630F2001330F100AD30F000F00BA3
:1008A600522CF10B522CF20B522C592C831203139F
:1008B600061F592C233008006E30080083160313D8
:1008C600880183120313E001E1011E30D6000030D7
:1008D600D7003130AD002D08CC003230AD002D08E8
:1008E600CD003330AD002D08CE003430AD002D08DC
:1008F600CF002A30AD002D08C8003030AD002D08DD
:10090600C9003030AD002D08CA002330AD002D08D7
:10091600CB000A128A11B0210A128A110A128A150C
:1009260080270A128A11F401F40A01300A128A1188
:1009360066210A128A111C30F5008030F6000A1270
:100946008A1129210A128A11293083120313AF0052
:100956009630AE007E30AD00AD0BAF2CAE0BAF2C9B
:10096600AF0BAF2C00000A128A11AB200A128A11B3
:10097600832E4D085D06031D4B2F4E085E06031D94
:100986004B2F4F085F06031D4B2F0A128A11AB200F
:100996000A128A11F401F40A01300A128A11662138
:1009A6000A128A110B30F5008030F6000A128A11FD
:1009B60029210A128A11F401F40A02300A128A1154
:1009C60066210A128A116830F5008030F6000A1294
:1009D6008A1129210A128A110A128A110B220A1275
:1009E6008A1183120313E001E101832E49085D0693
:1009F600031D4F2F4A085E06031D4F2F4B085F0647
:100A0600031D4F2F0A128A11AB200A128A11F40114
:100A1600F40A01300A128A1166210A128A113C3040
:100A2600F5008030F6000A128A1129210A128A116D
:100A36000A128A158A270A128A1183120313AD0035
:100A46002D08D200F401F40A02300A128A11662136
:100A56000A128A118312031352080A128A11B62047
:100A66000A128A110A128A158A270A128A11831211
:100A76000313AD002D08D3000230AD002D08F4009D
:100A860002300A128A1166210A128A11831203138E
:100A960053080A128A11B6200A128A110A128A15F6
:100AA6008A270A128A1183120313AD002D08D40077
:100AB6000330AD002D08F40002300A128A116621B7
:100AC6000A128A118312031354080A128A11B620D5
:100AD6000A128A110A128A158A270A128A118312A1
:100AE6000313AD002D08D5000430AD002D08F40029
:100AF60002300A128A1166210A128A11831203131E
:100B060055080A128A11B6200A128A111530831264
:100B16000313AF004B30AE00BD30AD00AD0B912DD1
:100B2600AE0B912DAF0B912D982D0A128A11AB2089
:100B36000A128A11F401F40A01300A128A11662196
:100B46000A128A114B30F5008030F6000A128A111B
:100B560029210A128A110A128A158A270A128A116B
:100B660083120313AD002D08D800F401F40A0230F5
:100B76000A128A1166210A128A118312031358086F
:100B86000A128A11B6200A128A110A128A158A27AF
:100B96000A128A1183120313AD002D08D900023000
:100BA600AD002D08F40002300A128A1166210A12DD
:100BB6008A118312031359080A128A11B6200A12DF
:100BC6008A110A128A158A270A128A1183120313B6
:100BD600AD002D08DA000330AD002D08F400023018
:100BE6000A128A1166210A128A11831203135A08FD
:100BF6000A128A11B6200A128A110A128A158A273F
:100C06000A128A1183120313AD002D08DB0004308B
:100C1600AD002D08F40002300A128A1166210A126C
:100C26008A11831203135B080A128A11B6200A126C
:100C36008A11153083120313AF004B30AE00BD305E
:100C4600AD00AD0B242EAE0B242EAF0B242E2B2E77
:100C56008312031352085806031D832E53085906A0
:100C6600031D832E54085A06031D832E55085B0662
:100C7600031D832E5808AD002D08CC005908AD0081
:100C86002D08CD005A08AD002D08CE005B08AD003A
:100C96002D08CF000A128A11AB200A128A11F4011C
:100CA600F40A01300A128A1166210A128A11743076
:100CB600F5008030F6000A128A1129210A128A11DB
:100CC600F401F40A02300A128A1166210A128A1104
:100CD6008930F5008030F6000A128A1129210A129D
:100CE6008A11293083120313AF009630AE007E308E
:100CF600AD00AD0B7C2EAE0B7C2EAF0B7C2E000018
:100D06000A128A11AB200A128A11F401F40A013080
:100D16000A128A1166210A128A115A30F5008030A9
:100D2600F6000A128A1129210A128A1193308312B7
:100D36000313AD002D08A0006108A2006008A10001
:100D460030300A128A1179220A128A110F30831260
:100D56000313AD002D08F40001300A128A11662132
:100D66000A128A113030F5000030F6000A128A1194
:100D760029210A128A11831203136008013EE0003A
:100D860061080318013E003EE1000A128A158A270F
:100D96000A128A1183120313AD002D08DC00F40138
:100DA600F40A02300A128A1166210A128A11831283
:100DB60003135C080A128A11B6200A128A110A1253
:100DC6008A158A270A128A1183120313AD002D0889
:100DD600DD000230AD002D08F40002300A128A113F
:100DE60066210A128A11831203135D080A128A11F8
:100DF600B6200A128A110A128A158A270A128A113D
:100E060083120313AD002D08DE000330AD002D085C
:100E1600F40002300A128A1166210A128A1183121C
:100E260003135E080A128A11B6200A128A110A12E0
:100E36008A158A270A128A1183120313AD002D0818
:100E4600DF000430AD002D08F40002300A128A11CA
:100E560066210A128A11831203135F080A128A1185
:100E6600B6200A128A11153083120313AF004B30D5
:100E7600AE00BD30AD00AD0B3E2FAE0B3E2FAF0B1F
:100E86003E2F452F831203134C085C060319BC2C16
:100E960048085C060319F92C053060066104031D39
:100EA600ED2F0A128A11AB200A128A11F401F40AF4
:100EB60001300A128A1166210A128A112C30F500B5
:100EC6008030F6000A128A1129210A128A11831625
:100ED6000313870183120313D001D1015108803A0D
:100EE600FF0080307F02031D7A2F1F305002031847
:100EF600E62F933083120313AD002D08A000570888
:100F0600A2005608A1003C300A128A1179220A1260
:100F16008A110A128A11AB200A128A11F401F40A04
:100F260001300A128A1166210A128A112C30F50044
:100F36008030F6000A128A1129210A128A11F40158
:100F4600F40A02300A128A1166210A128A113C300A
:100F5600F5000030F6000A128A1129210A128A11B8
:100F66008312031307165608FF3ED60057080318C8
:100F7600013EFF3ED7000B3083120313AF0026302D
:100F8600AE005D30AD00AD0BC62FAE0BC62FAF0B5E
:100F9600C62F8312031307120B3083120313AF00FD
:100FA6002630AE005D30AD00AD0BD72FAE0BD72F80
:100FB600AF0BD72F013083120313D0070318D10AC2
:100FC6000030D107712F1E3083120313D600003074
:100FD600D700F42C0A128A11AB200A128A11F401E6
:100FE600F40A01300A128A1166210A128A117F3028
:0A0FF6006C2E83010A128A11612C8F
:101F0000831203138601F0308316031386007F309B
:101F1000810008006E30F3007308F4006E30740620
:101F2000031D982F0A128A1151230A128A158B2F2A
:101F300074080800F000701CA12F83120313081608
:101F4000A42F831203130812F01CA82F8816A92FA0
:101F50008812701DAD2F0817AE2F0813F01DB22F79
:101F60008817080088130800F30083120313081170
:101F700073080A128A159A270A128A158312031304
:101F800088151530F200C630F100F10BC52FF20BA9
:101F9000C52F000083120313881108007808790404
:101FA0000319FB2FFD01FD0AF91BE22F013003107D
:101FB000F80DF90DFF3E031DD72F0130FC007C0802
:101FC000FD07D42F79087B02031DE82F78087A02D9
:101FD000031CF02F7808FA027908031CFB03FB02AC
:101FE00001300310F90CF80CFF3E031DF12F0130F6
:101FF000FD02031DE22F7B08F9007A08F8000800B3
:02400E007A3DF9
:00000001FF
