:020000040000FA
:100000000A128A11F82F00308A000408840A820735
:10001000003445346E3474346534723420344E34D4
:1000200075346D3462346534723400345734653459
:0C0030006C3463346F346D34653400347C
:100B3A00831203138601F0308316031386007F3075
:100B4A008100080000300A128A11D8250A128A1177
:100B5A0001300A128A11D82508006E30F200720894
:100B6A00F3006E307306031DC02D0A128A1118276E
:100B7A000A128A11B32D73080800F000701CC92DDF
:100B8A00831203130816CC2D831203130812F01CC8
:100B9A00D02D8816D12D88120813F01DD62D88174E
:100BAA00080088130800F200831203130811720860
:100BBA000A128A11C2250A128A118312031388158E
:100BCA00C730F100E82DF10BE72DEB2DEC2D831248
:100BDA00031388110800F700F501F6017508770775
:100BEA0084000A128A1103200A128A11003A031990
:100BFA0008007508770784000A128A1103200A126E
:100C0A008A110A128A1137260A128A110130F50747
:100C1A000318F60A0030F607F32DF6007603031DD3
:100C2A00080073087F3EF4007408F9007908F4009C
:100C3A0004300310F40CFF3E031D1E2E7408F50049
:100C4A007508F70079080F39F4007408F800770876
:100C5A000A128A11D8250A128A1178080A128A11E8
:100C6A00D8250800F40074080F39F1007108F20061
:100C7A0074080F39F1007108F30083120313081581
:100C8A007308F10004300310F10CFF3E031D482ED7
:100C9A0071080A128A11C2250A128A1183120313D1
:100CAA0088150330F100F10B582E831203138811B3
:100CBA0072080A128A11C2250A128A1183120313B0
:100CCA0088150330F100F10B682E83120313881183
:100CDA0008008316031388010A128A11C0260A1211
:100CEA008A110A128A119D250A128A11F301F30A3E
:100CFA0001300A128A1112260A128A110E300A12B9
:100D0A008A11F0250A128A110230FC004530FB00D4
:100D1A00A930FA00FA0B8F2EFB0B8F2EFC0B8F2EAD
:100D2A00962E0A128A11A7250A128A11F301F30ACA
:100D3A0001300A128A1112260A128A1101300A1285
:100D4A008A11F0250A128A110A128A11B2250A1288
:100D5A008A11FA007A08FD00F301F30A02300A1236
:100D6A008A1112260A128A117D080A128A11372656
:100D7A000A128A119B2E00300A128A11C2250A12FF
:100D8A008A110730F4007D30F300F30BCA2EF40BFE
:100D9A00CA2E03300A128A11D8250A128A11F9308A
:100DAA00F300D72EF30BD62EDA2EDB2E03300A12DF
:100DBA008A11D8250A128A110430F4009130F300FE
:100DCA00F30BE52EF40BE52E03300A128A11D8250F
:100DDA000A128A1102300A128A11D8250A128A11B5
:100DEA0002300A128A11D8250A128A1108300A1208
:100DFA008A11D8250A128A1100300A128A11D825B6
:100E0A000A128A110C300A128A11D8250A128A117A
:100E1A0000300A128A11D8250A128A1106300A12DB
:100E2A008A11D825080083120313061086140615A2
:100E3A008615061A2F2F5230F1002930F000F00BD8
:100E4A00242FF10B242F292F83120313061E292F77
:100E5A0031300800861A402F5230F1002930F00054
:100E6A00F00B352FF10B352F3A2F83120313861E01
:100E7A003A2F32300800061B512F5230F100293028
:100E8A00F000F00B462FF10B462F4B2F8312031362
:100E9A00061F4B2F333008000614861006158615D8
:100EAA00061A662F5230F1002930F000F00B5B2F42
:100EBA00F10B5B2F602F83120313061E602F343051
:100ECA000800861A772F5230F1002930F000F00B13
:100EDA006C2FF10B6C2F712F83120313861E712F47
:100EEA0035300800061B882F5230F1002930F000F7
:100EFA00F00B7D2FF10B7D2F822F83120313061F18
:100F0A00822F363008000614861406118615061A32
:100F1A009D2F5230F1002930F000F00B922FF10B87
:100F2A00922F972F83120313061E972F373008002C
:100F3A00861AAE2F5230F1002930F000F00BA32FA1
:100F4A00F10BA32FA82F83120313861EA82F383064
:100F5A000800061BBF2F5230F1002930F000F00BB9
:100F6A00B42FF10BB42FB92F83120313061FB92F15
:100F7A00393008000614861406158611061AD42F6D
:100F8A005230F1002930F000F00BC92FF10BC92FB4
:100F9A00CE2F83120313061ECE2F2A300800861A7C
:100FAA00E52F5230F1002930F000F00BDA2FF10B67
:100FBA00DA2FDF2F83120313861EDF2F303008004B
:100FCA00061BF62F5230F1002930F000F00BEB2F00
:100FDA00F10BEB2FF02F83120313061FF02F233090
:100FEA0008006E30080083120313A001A1018301D7
:060FFA000A128A116E2E9E
:02400E003A3D39
:00000001FF
